:020000021000EC
:1000000000000420D55703000D580300313B0300C6
:10001000115803003D3B0300433B03000000000078
:1000200000000000000000000000000031EA0200B3
:100030001958030000000000CBEA0200DBEA0200CE
:100040002D900300C90E03001F5803001F58030022
:100050001F5803001F5803001F5803001F580300B8
:100060001F5803001F5803001F5803001F580300A8
:100070001F580300C19103001F580300E10E030045
:100080001F5803001F5803001F5803001F58030088
:100090001F5803001F5803001F5803001F58030078
:1000A0001F5803001F5803001F5803001F58030068
:1000B0001F5803001F58030000000000000000004C
:1000C0001F5803001F5803001F5803001F58030048
:1000D0001F5803001F5803001F5803001F58030038
:1000E0001F5803001F5803001F58030000000000A2
:1000F000000000001F580300000000001F5803000C
:1001000010B5054C237833B9044B13B10448AFF351
:1001100000800123237010BD10100020000000009B
:100120007CAA040008B5034B1BB103490348AFF395
:10013000008008BD00000000141000207CAA04000C
:10014000154B002B08BF134B9D46A3F5803A0021A9
:100150008B460F461348144A121A2DF0A1FA0F4B82
:10016000002B00D098470E4B002B00D09847002062
:10017000002104000D000D48002802D00C4824F096
:1001800073FA2CF08DFD2000290020F0D1FC24F022
:1001900068FA00BF00000800000004200000000012
:1001A0008D0A03001010002088CB00206946030050
:1001B0000000000038B5114C23782DED028B054668
:1001C00008EE102A33B90E4B012118781EF0CAFB35
:1001D00001232370F7EE007A38EE278ADFED097AE3
:1001E000094928EE278A2846FDEEC87ABDEC028B25
:1001F00017EE902ABDE8384000F07AB92C100020A4
:10020000040200200000FF424E7A0400704770474D
:1002100010B50421044624F057FC204610BD000010
:10022000F0B5424C85B001210D201EF09BFB2378D8
:10023000BFF35B8FDA070BD4204624F023FA38B1E2
:10024000204624F041FA3A4A3A493B4824F007FA5A
:100250003A4C394B23603A4B3A4D1A68D118D3586F
:100260002960CB1A1A88042A0CD99A8812B18A58A4
:10027000032A09D034493048032305B0BDE8F040D3
:1002800000F036B90022F5E7304E3378BFF35B8FCC
:10029000DB070ED4304624F0F5F950B12C4801F0BC
:1002A000A5FD304624F010FA214A2A49284824F0B6
:1002B000D6F9294F3B78BFF35B8F13F0010617D1B6
:1002C000384624F0DFF998B10296236801934FF481
:1002D000FA6300931E4A2968204B214817F07AFDE3
:1002E000384624F0F1F9124A1E491D4824F0B7F9A6
:1002F0001D4E1B48306017F09DFE054630B11B496E
:10030000206805B0BDE8F04000F0F2B80146306862
:1003100017F0F6FD164B29461860306817F02EFED0
:10032000144B1860144B1D6005B0F0BD3410002054
:10033000000200200D020100080200201018002019
:10034000C82004001C180020682004003810002079
:10035000BC1800200F0201003010002040100020C7
:1003600024180020F97F02003C100020AF20040078
:10037000181800202018002014180020354B70B5E4
:100380001B68354C354ED4ED007A07EE103AF8EE86
:10039000E77AB8EEC77A2DED028B87EE878A82B0B6
:1003A000012101932E4B1B685A680D20DFED2D7A39
:1003B00028EE278AD3ED037A88EE277AD3ED047AE4
:1003C000F8EEE77A77EE277AFDEEE77A17EE903AC5
:1003D00013701EF005FB244B186817F0BFFE0021B8
:1003E00005460D201EF0FCFA75B118EE100A29F032
:1003F000B1F802460B4630681C4902B0BDEC028BD6
:10040000BDE8704000F074B84FF4FA701EF050FA76
:10041000174B30681A685368116993F9003092EDF0
:10042000037A5B1A07EE903AF8EEE77A18EE101AA4
:1004300067EE877A17EE902AFFF7BCFE2068019BD3
:1004400001308342D8BF2846206002B0BDEC028B49
:1004500070BD00BF4C2004001418002010180020AC
:1004600018180020DB0FC9403C1000205020040069
:100470002018002010B541F29021044624F024FBFE
:10048000204610BD01308000704730B518B9B1FA70
:1004900081F0400930BD04688C420DD10430002346
:1004A0009C4201DC0120F5E750F8045B52F8231070
:1004B0008D4201D10133F3E70020EBE7884205D0FC
:1004C00030B131B10A1D0968FFF7DFBF0120704765
:1004D00070470846704700000D289ABF024B53F83A
:1004E00020000248704700BF802A0400B82A040098
:1004F0000EB403B503AA036852F8041B01929B686B
:10050000984702B05DF804EB03B070470CB407B530
:1005100004AA036852F8041B01929B68984703B031
:100520005DF804EB02B07047006803685B68184729
:100530000138C0B204289ABF014B185C00207047F4
:100540001E2B040020B101280CBF022000207047A0
:100550000120704738B515461A4628B90B49284678
:10056000FFF7C6FF012038BD0468082C09D80439FC
:1005700000EB8404A04206D050F8043F41F8043F49
:10058000F8E70349EBE70020EDE700BFD12B0400BB
:10059000FF2B04000368C01A03888B428CBF405AAB
:1005A0000020704710B50C210446FFF7F3FF231815
:1005B00008B12058184410BD08B5034610460C2B4E
:1005C00024D8DFE803F00B071113171B1D0F1F15AD
:1005D0000D2119000A230B70002008BD0123FAE742
:1005E0000B23F8E70723F6E70223F4E70323F2E7F8
:1005F0000923F0E70423EEE70D23ECE70523EAE700
:100600000623E8E70823E6E70C23E4E700220A7064
:100610001A460249FFF76CFF0120DEE7402C040078
:10062000002070470020704700207047002070476E
:10063000002070470020704700207047002070475E
:10064000002070470020704700207047002070474E
:10065000002070470020704700207047002070473E
:10066000002070470020704700207047002070472E
:10067000002070470020704700207047002070471E
:10068000002070470020704700207047002070470E
:1006900000207047002070470020704700207047FE
:1006A00038B505461446FFF775FF00B12C5C2046AF
:1006B00038BD08B500220A21FFF7F2FF08BD00008F
:1006C0002DE9FF411F4613681546064688461B68FC
:1006D0000422242128469847044618B124220021E8
:1006E0002CF0DEFFCDE90254A4B91B4B01934FF46B
:1006F000BE630093194A1A4B41464046FFF706FF76
:100700000124039911B102A8FFF70EFF204604B09F
:10071000BDE8F0813046FFF7CCFF112817D13046F5
:10072000FFF740FF054690B10421FFF733FF2E1875
:1007300068B12D5870190AD021460A4B4246FFF77E
:1007400009FF04460028DCD1039B72591A62039BFF
:100750003B6000240394D4E7B72B0400A02B0400D3
:10076000232B0400C92B04002DE9FF411F46136809
:1007700015460122064688461B68114628469847BA
:10078000044608B100230370CDE90254A4B9154B07
:10079000019340F2C6530093134A144B414640461E
:1007A000FFF7B4FE0124039911B102A8FFF7BCFEC4
:1007B000204604B0BDE8F0813046FFF77AFF1B28E1
:1007C0000BD13046FFF7EEFE38B100220421FFF7CF
:1007D00067FF003018BF0120207000233C600393A6
:1007E0001C46E0E7B72B0400A02B0400232B0400D9
:1007F0002DE9FF411F4613681546064688461B68CB
:100800000122022128469847044610B100230370B4
:100810004370CDE90254A4B91C4B01934FF4C66355
:1008200000931B4A1B4B41464046FFF76FFE0124D5
:10083000039911B102A8FFF777FE204604B0BDE886
:10084000F0813046FFF735FF4A281AD13046FFF7CE
:10085000A9FE0546A8B100220421FFF721FF0030C0
:1008600018BF01202070002206212846FFF718FF3C
:10087000003018BF0120607000233C6003931C46C9
:10088000D6E7002323706370F6E700BFB72B0400A0
:10089000A02B0400232B040038B505461446FFF7AF
:1008A00079FE00B12C58204638BD00002DE9FF41EB
:1008B0001F4613681546064688461B680422082111
:1008C00028469847044610B10023C0E90033CDE91B
:1008D0000254A4B9174B019340F265530093164A92
:1008E000164B41464046FFF711FE0124039911B112
:1008F00002A8FFF719FE204604B0BDE8F08130469B
:10090000FFF7D7FE3B280FD13046FFF74BFE0546D9
:1009100050B100220421FFF7BFFF00222060062112
:100920002846FFF7B9FF606000233C6003931C4634
:10093000DCE700BFB72B0400A02B0400232B04002E
:100940002DE9FF411F4613681546042206468846D6
:100950001B68114628469847044608B100230360E7
:10096000CDE90254A4B9144B019340F2AA63009359
:10097000124A134B41464046FFF7C8FD0124039934
:1009800011B102A8FFF7D0FD204604B0BDE8F08108
:100990003046FFF78EFE232808D13046FFF702FECF
:1009A00020B100220421FFF777FF206000233C6084
:1009B00003931C46E3E700BFB72B0400A02B040001
:1009C000232B04002DE9FF411F461368154604221E
:1009D000064688461B68114628469847044608B1D3
:1009E00000230360CDE90254A4B9144B019340F2F3
:1009F000C2630093124A134B41464046FFF786FDFF
:100A00000124039911B102A8FFF78EFD204604B01E
:100A1000BDE8F0813046FFF74CFE4F2808D1304644
:100A2000FFF7C0FD20B100220421FFF735FF206051
:100A300000233C6003931C46E3E700BFB72B040090
:100A4000A02B0400232B04002DE9FF411F4613684F
:100A50001546064688461B680422142128469847F6
:100A6000044618B1142200212CF01AFECDE90254DC
:100A7000A4B9204B019340F2EC6300931E4A1F4B34
:100A800041464046FFF742FD0124039911B102A8F7
:100A9000FFF74AFD204604B0BDE8F0813046FFF77D
:100AA00008FE202821D13046FFF77CFD0546E0B145
:100AB00000220421FFF7F0FE0022206006212846D4
:100AC000FFF7EAFE0022606008212846FFF7E4FEF7
:100AD0000022A0600A212846FFF7DEFE0022E06027
:100AE0000C212846FFF7D8FE206100233C600393C9
:100AF0001C46CAE7B72B0400A02B0400232B0400DC
:100B00002DE9FF411F4613681546064688461B68B7
:100B10000422082128469847044610B10023C0E962
:100B20000033CDE90254A4B9174B019340F25F732F
:100B30000093164A164B41464046FFF7E7FC012456
:100B4000039911B102A8FFF7EFFC204604B0BDE8FD
:100B5000F0813046FFF7ADFD40280FD13046FFF75A
:100B600021FD054650B100220421FFF795FE002229
:100B7000206006212846FFF78FFE606000233C605E
:100B800003931C46DCE700BFB72B0400A02B040036
:100B9000232B040038B505461446FFF7FBFC00B1D3
:100BA0002C56204638BD00002DE9FF411F46136832
:100BB0001546064688461B680122022128469847AA
:100BC000044610B1002303704370CDE90254A4B968
:100BD0001A4B01934FF45F730093194A194B414626
:100BE0004046FFF793FC0124039911B102A8FFF7D7
:100BF0009BFC204604B0BDE8F0813046FFF759FD6C
:100C00000B2815D13046FFF7CDFC054680B10022F8
:100C10000421FFF7BFFFC0B2FFF78AFC012220705A
:100C200006212846FFF73CFD003018BF0120607008
:100C300000233C6003931C46D6E700BFB72B04009B
:100C4000A02B0400232B04002DE9FF4198461368D4
:100C50001546012207460E461B681146284698474E
:100C6000044608B100230370CDE90254A4B9194B1E
:100C7000019340F296330093174A184B31463046A1
:100C8000FFF744FC0124039911B102A8FFF74CFCC3
:100C9000204604B0BDE8F0813846FFF70AFD282859
:100CA00005D0039BC8F8003000240394EBE73846D6
:100CB000FFF778FC0028F4D000220421FFF76AFF38
:100CC00021463246C0B2FFF777FC04460028E8D040
:100CD000D9E700BFB72B0400A02B0400232B04008E
:100CE0002DE9FF41984613681546012207460E4636
:100CF0001B68114628469847044608B10023037034
:100D0000CDE90254A4B9194B019340F2AF330093DB
:100D1000174A184B31463046FFF7F8FB0124039978
:100D200011B102A8FFF700FC204604B0BDE8F08135
:100D30003846FFF7BEFC392805D0039BC8F80030C1
:100D400000240394EBE73846FFF72CFC0028F4D08E
:100D500000220421FFF71EFF21463246C0B2FFF7F2
:100D60002BFC04460028E8D0D9E700BFB72B0400CD
:100D7000A02B0400232B04002DE9FF411F4613681C
:100D80001546064688461B680422082128469847CF
:100D9000044610B1002303600371CDE90254A4B9E5
:100DA000184B019340F2E7330093174A174B414623
:100DB0004046FFF7ABFB0124039911B102A8FFF7EE
:100DC000B3FB204604B0BDE8F0813046FFF771FC6C
:100DD0000A2812D13046FFF7E5FB054668B100222C
:100DE0000621FFF7D7FEC0B2FFF7A2FB0022207159
:100DF00004212846FFF750FD206000233C60039348
:100E00001C46D9E7B72B0400A02B0400232B0400B9
:100E10002DE9FF4198461368154607460E461B68A4
:100E20000422182128469847044618B118220021A8
:100E30002CF036FCCDE90254A4B9274B019340F2C3
:100E400002430093254A264B31463046FFF75EFBAE
:100E50000124039911B102A8FFF766FB204604B0F4
:100E6000BDE8F0813846FFF724FC012806462DD165
:100E70003846FFF797FB054640B300220421FFF7F1
:100E800089FEC0B2FFF75EFB0022207006212846D3
:100E9000FFF702FD0022606008212846FFF7FCFCF6
:100EA00000220A21A0602846FFF774FEC0B2FFF7B7
:100EB0003FFB324620730C212846FFF7EDFC3246FB
:100EC00020610E212846FFF7E7FC60610023C8F887
:100ED000004003931C46BCE7B72B0400A02B040082
:100EE000232B04002DE9FF411F46136815460646D3
:100EF00088461B6804221C2128469847044618B1DE
:100F00001C2200212CF0CCFBCDE90254A4B9294BC2
:100F1000019340F22C430093274A284B4146404618
:100F2000FFF7F4FA0124039911B102A8FFF7FCFAC4
:100F3000204604B0BDE8F0813046FFF7BAFB022836
:100F400033D13046FFF72EFB054670B30022042153
:100F5000FFF720FEC0B2FFF7F5FA0022207006214D
:100F60002846FFF799FC0022606008212846FFF719
:100F700093FC0022A0600A212846FFF78DFC002286
:100F80000C21E0602846FFF705FEC0B2FFF7D0FA5B
:100F9000012220740E212846FFF77EFC01226061A9
:100FA00010212846FFF778FCA06100233C600393E2
:100FB0001C46B8E7B72B0400A02B0400232B040029
:100FC0002DE9F04398461368154685B081460E46D4
:100FD0001B680122042128469847044608B10023D3
:100FE0000360CDE90254A4B9264B019340F2974324
:100FF0000093254A254B31463046FFF787FA0124F6
:10100000039911B102A8FFF78FFA204605B0BDE899
:10101000F0834846FFF74DFB082807462CD1484689
:10102000FFF7C0FA054638B300220421FFF7B2FDEE
:10103000C0B2FFF77DFA0022207039462846FFF73C
:101040002FFB003018BF0120A07000220A21284683
:10105000FFF726FB003018BF0120E07000220621B8
:101060002846FFF797FD30B1012804D008493046E3
:10107000FFF73EFAC3E760700023C8F8004003930F
:101080001C46BDE7B72B0400A02B0400232B040053
:10109000642C04002DE9FF411F4613681546012208
:1010A000064688461B68114628469847044608B1FC
:1010B00000230370CDE90254A4B9154B019340F20B
:1010C000DC430093134A144B41464046FFF71EFA97
:1010D0000124039911B102A8FFF726FA204604B0B3
:1010E000BDE8F0813046FFF7E4FA0C280BD130461A
:1010F000FFF758FA38B100220421FFF74BFDC0B2C8
:10110000FFF716FA207000233C6003931C46E0E7CB
:10111000B72B0400A02B0400232B04002DE9FF4172
:101120001F46136815460122064688461B6811466D
:1011300028469847044608B100230370CDE90254BD
:10114000A4B9154B019340F23C530093134A144B3E
:1011500041464046FFF7DAF90124039911B102A88C
:10116000FFF7E2F9204604B0BDE8F0813046FFF712
:10117000A0FA15280BD13046FFF714FA38B1002237
:101180000421FFF707FDC0B2FFF7D2F9207000235A
:101190003C6003931C46E0E7B72B0400A02B04003F
:1011A000232B04002DE9FF411F4613681546064610
:1011B00088461B680422282128469847044618B10F
:1011C000282200212CF06CFACDE90254A4B9264B58
:1011D000019340F28E530093244A254B41464046EA
:1011E000FFF794F90124039911B102A8FFF79CF9C4
:1011F000204604B0BDE8F0813046FFF75AFA0528D2
:101200002DD13046FFF7CEF9054640B30022042128
:10121000FFF7C0FCC0B2FFF795F90022207006214D
:101220002846FFF739FB0022606008212846FFF7B7
:1012300033FB0022A0600A212846FFF72DFB002285
:10124000E0600C212846FFF727FB002220610E21D9
:101250002846FFF79FFCC0B2FFF76AF9207500230C
:101260003C6003931C46BEE7B72B0400A02B040090
:10127000232B04002DE9FF419846136815460122EF
:1012800007460E461B68114628469847044608B193
:1012900000230370CDE90254A4B9194B019340F225
:1012A00057630093174A184B31463046FFF72EF923
:1012B0000124039911B102A8FFF736F9204604B0C2
:1012C000BDE8F0813846FFF7F4F9372805D0039BD5
:1012D000C8F8003000240394EBE73846FFF762F9C2
:1012E0000028F4D000220421FFF754FC21463246A6
:1012F000C0B2FFF761F904460028E8D0D9E700BF83
:10130000B72B0400A02B0400232B04002DE9FF4180
:101310001F4613681546064688461B6801220221AF
:1013200028469847044610B1002303704370CDE966
:101330000254A4B91A4B01934FF4E1630093194A84
:10134000194B41464046FFF7E1F80124039911B1DA
:1013500002A8FFF7E9F8204604B0BDE8F081304666
:10136000FFF7A7F91C2815D13046FFF71BF90546F2
:1013700080B100220421FFF70DFCC0B2FFF7D8F8BE
:101380000122207006212846FFF78AF9003018BF95
:101390000120607000233C6003931C46D6E700BF29
:1013A000B72B0400A02B0400232B04002DE9FF41E0
:1013B00098461368154607460E461B680422082106
:1013C00028469847044618B100230360037143710F
:1013D000CDE90254A4B91E4B019340F2227300934D
:1013E0001C4A1D4B31463046FFF790F80124039903
:1013F00011B102A8FFF798F8204604B0BDE8F081CB
:101400003846FFF756F9062806461BD13846FFF73F
:10141000C9F80546B0B100220421FFF73DFA0022C9
:10142000314620602846FFF7B5FBC0B2FFF780F8D1
:101430000022207108212846FFF732F9003018BF3A
:10144000012060710023C8F8004003931C46CEE7DA
:10145000B72B0400A02B0400232B040038B504464E
:101460001546FFF797F808B104442568284638BDAB
:101470002DE9FF411F46136815460422064688469B
:101480001B68114628469847044608B100230360AC
:10149000CDE90254A4B9144B019340F2796300934F
:1014A000124A134B41464046FFF730F80124039996
:1014B00011B102A8FFF738F8204604B0BDE8F0816A
:1014C0003046FFF7F6F8092808D13046FFF76AF8EA
:1014D00020B100220421FFF7C1FF206000233C60FF
:1014E00003931C46E3E700BFB72B0400A02B0400C6
:1014F000232B04002DE9F843984605460023C8F83D
:10150000003091460F461BF065FC2B68EB1A06462F
:101510001A88082A0CD9198951B16C58832E09D917
:1015200032461C494846FEF7E3FF0120BDE8F88338
:101530000124F3E7202E11D03B6822461B68314678
:1015400038469847C8F8000008BB134A134952F8B8
:10155000262023464846FEF7CBFFE6E7062A05D9B4
:10156000DB88E91813B1EB58C91804D10C49484677
:10157000FEF7BEFFD9E73B6822465B680431384678
:101580009847C8F80000B0FA80F04009CEE7002084
:10159000CCE700BFA42E0400902C0400F82E040019
:1015A0009A2F0400F8B515461C4600220023064673
:1015B0000F4628F08FFA18B100232B602360F8BD86
:1015C00022463046394628F0EFFD0022104B28F025
:1015D00019F828F01BFE28F0C5FB4FF0004200234D
:1015E000824273EB010601DA2AF0B2FB994201BF95
:1015F0009042236801332360236808BF4FF0804086
:101600001F33BEBF0023002023602860D7E700BF40
:101610000000E041F8B515461C460022084B06467E
:101620000F4628F07FFA08B92AF092FB23462A4693
:1016300030463946FFF7B6FF2368002BF4DBF8BDD0
:101640000000F03FF7B517461E4600220D4B04463A
:101650000D4628F049FA08B92AF07AFB0022002347
:101660002046294628F05EFA0028F5D001AB3A461C
:1016700020462946FFF796FF019B002BECDC3360E8
:1016800003B0F0BD0000F03F2DE9F14F06460A9887
:101690009946C0F11F00012303FA00F00F4690465F
:1016A00027F046FF424604460D464B463046394633
:1016B00027F0A8FF02460B462046294627F0A2FF46
:1016C0000BA3D3E90023DDE90BAB04460D4628F05C
:1016D00029FA10B106A5D5E900455B4652462046D9
:1016E000294601B0BDE8F04FFFF794BFAFF300808B
:1016F0000000C0FFFFFFDF412DE9F84301248146D0
:1017000004FA00F001388846154627F011FF064616
:10171000A5EB09000F46C0F12003A0F1200124FA37
:1017200003F304FA01F104FA00F0194327F03CFF37
:1017300002460B463046394627F064FFC8F12003C5
:101740000F46A8F1200124FA03F304FA01F106463A
:10175000194304FA08F027F027FF02460B463046EB
:10176000394628F079F828F09FFC28F0FBF9BDE80D
:10177000F883836810B41BB9036D5DF8044B1847F8
:1017800003EB81105DF8044B7047D0ED007AC0EE9A
:10179000277A10B5044617EE900A27F0DBFE28F0F2
:1017A00035FD28F027FA07EE900AFDEEE77A636828
:1017B00017EE900A184410BD002804DB884202DAB4
:1017C00052F8200070474FF0FF3070470B6810B59B
:1017D0001968044610461A1DFFF7EEFF011E04DBD0
:1017E0002046BDE81040FFF7C4BF002010BD4B6885
:1017F00010B51968044610461A1DFFF7DDFF011EDB
:1018000004DB2046BDE81040FFF7B3BF002010BD49
:10181000FFF7DCBFD1ED037A92ED037A67EE877AAA
:1018200073B5F5EEC07AF1EE10FA1E460ADA0F4BE8
:10183000009344690E4A0F494FF4A173A047012059
:1018400002B070BD17EE900A27F084FE0446F068DF
:101850000D4627F07FFE0B4602462946204627F01C
:10186000FBFF069BC3E900010020E9E764350400A3
:10187000F3340400A02B04002DE9F74F0446C86898
:1018800090469A460D4627F065FE0646D8F80C00AD
:101890000F4627F05FFE02460B463046394627F0DA
:1018A000B1FEDDE90C9B06460F46BAF1000F1CD0D5
:1018B000DAF80C0027F04EFE02460B463046394659
:1018C00027F0E8FC0646D9F80C0021F0004727F085
:1018D00041FE02460B463046394627F0BDFF13A3B2
:1018E000D3E9002328F00AF950B14B464246294675
:1018F0002046CDF830B003B0BDE8F04FFFF78ABF07
:10190000074B009320466569064A074940F23513A4
:10191000A847012003B0BDE8F08F00BFAFF30080FF
:101920007D350400F3340400A02B04007B14AE4783
:10193000E17A943FF0B51F46137885B0032B0A9ED9
:101940000ED0092B1FD0072B21D0264B00934469C2
:10195000254A264940F27513A047012005B0F0BD85
:10196000FF2400251369D26802920129039312D142
:101970009FED1F0A02A8FFF708FF8542ACBF3D603C
:10198000386034601BE07F246FF07F05EAE747F69C
:10199000FF74184DE6E7032913D19FED150A02A83D
:1019A000FFF7F3FEB1EE080A8542ACBF3D60386038
:1019B00002A8FFF7EAFE8442D4BF34603060002002
:1019C000CCE702290BD1BFEE000A02A8FFF7DDFE2B
:1019D000B7EE000A8542ACBF3D603860E8E73D6085
:1019E000CFE700BF9F350400F3340400A02B0400B0
:1019F000000000000080FFFF2DE9F04F91F83090CB
:101A00008FB0B9F1010F04460D4617469B46DDF82D
:101A100080800FD001266D4B0193CDE902966C4B6F
:101A200000934469D2236B4A6B49A04701200FB051
:101A3000BDE8F08F92F83060012E08D0634B01931F
:101A4000CDE90269654B00934469D423EBE7526BFF
:101A50003AB9634B00934469DE235E4A6149A0476B
:101A6000E4E7D2F80090B9F1000F04D15E4B009387
:101A70004469DF23F1E7D9F800A0BAF1010F35DDA1
:101A80000B78092B06D0072B04D0584B00934469E0
:101A9000E423E2E73B78092B0DD00922CDE902329D
:101AA000534B0193534B00936569E523494A4A49D7
:101AB0002046A847BAE7D04508D04F4B0193CDE95F
:101AC00002A84E4B00936569E623EFE7BB68926876
:101AD00003EB82035B68984508D0CDE90283484B4D
:101AE0000193454B00936569E923DFE7D5ED037A60
:101AF000189BCDED057AD3ED037A09F10403CDED02
:101B0000067A07930026B0452EDDBAF1010FC9BF52
:101B1000079BD9F8040003EB8603186827F01AFD29
:101B2000CDE90801059827F015FD02460B46DDE9D1
:101B3000080127F067FDCDE90801069827F00AFDA6
:101B400002460B46DDE9080127F086FE0CAB0BAA26
:101B5000FFF728FD1E9A0B9B42F826301F9A0C9B1C
:101B600042F826300136CEE72B78032B1AD10EAB84
:101B70000020002163E902010193189B00933A467B
:101B80005B4629462046FFF777FE00287FF44FAFDB
:101B90000BAB1A9ADDE90C01FFF704FD0B9B1B9AB6
:101BA0005B4213602B78092B03D003F0FB03032B5C
:101BB00009D1199B189A19781D9B009320461C9BEC
:101BC000FFF7B8FE33E7002031E700BFBF35040060
:101BD000D9350400F3340400A5350400F2350400BF
:101BE0000C360400A02B040020360400A44D040091
:101BF000704604003B3604004836040055360400A5
:101C00007636040008B589688068FEF757FC003016
:101C100018BF012008BD0022C0E900228260704781
:101C200003685B69184703689B691847202930B52A
:101C30000FD041F20403C45800239C4209D05A013A
:101C40008518AD698D4202D10432104430BD013394
:101C5000F3E70020FAE741F2882300F5805230B51F
:101C60000832C45800239C420AD012F8015B8D420E
:101C700004D103F2224350F8230030BD0133F2E7D0
:101C80000020FAE741F204032DE9F041C758044669
:101C9000884605460026B7420FD0AB69202B09D1F4
:101CA0004146E8692BF060FF20B904EB4610043090
:101CB000BDE8F08101362035EDE70020F8E70000AF
:101CC00020292DE9F04705468846144699460AD151
:101CD00041F28C23C05810B90120BDE8F087224999
:101CE000FEF706FCF8E703685B699847074648B1CA
:101CF00041F28C23E8580028EED042461B49FEF7FB
:101D0000F7FBE9E741F2040E55F80EC0BCF17F0F76
:101D10000AD941F28C23E8580028DDD080234246BE
:101D20001349FEF7E5FBD7E70FCC05EB4C1A0AF198
:101D300004060FC694E80F0086E80F0041F28822DF
:101D40000CF10103CAF8188045F80E30AB5841F287
:101D50000801E81800F8018003F22241013345F838
:101D600021903846AB50B8E7F93604003E370400FE
:101D70008D3704002DE9F04141F2040605468359F0
:101D80007F2B884614460CD941F28C23C05810B9D9
:101D90000120BDE8F0810A4680231249FEF7A8FB26
:101DA000F6E703689B699847074648B141F28C23E0
:101DB000E8580028ECD042460B49FEF799FBE7E7CC
:101DC000AB595A1CAA5105EB43150FCC2E1D0FC65B
:101DD00094E80F0086E80F002023C5E9063838464E
:101DE000D7E700BFD03704001238040041F20403E3
:101DF00030B50025C55041F2882389B0C55041F265
:101E00008C230446C550E34B036068460CF042FC4B
:101E1000E14B6A4665212046FFF752FF684601F014
:101E2000ABFB2946DD4B6A462046FFF749FF684673
:101E300001F008F8DA4B6A4638212046FFF740FFE8
:101E4000684601F009F8D74B6A464F212046FFF754
:101E500037FF684605F04AFAD34B6A46012120460F
:101E6000FFF72EFF684601F007F9D04B6A4668215C
:101E70002046FFF725FF68460AF032FBCC4B6A4646
:101E800002212046FFF71CFF684602F007FEC94BFF
:101E90006A4603212046FFF713FF68460CF016FC44
:101EA000C54B6A466C212046FFF70AFF684603F0DF
:101EB000C9FAC24B6A4604212046FFF701FF684673
:101EC0000AF082FFBE4B6A4606212046FFF7F8FE65
:101ED0000BF0F2FEBB4902462046FFF74BFF684677
:101EE00007F0C2F9B84B6A4647212046FFF7E8FEE3
:101EF0000CF040FC054630B10CF03EFC2A46014691
:101F00002046FFF737FF68460CF096FC6A46AF4B59
:101F100008212046FFF7D4FE684604F05FF96A46C0
:101F2000AB4B09212046FFF7CBFE684607F0B8F916
:101F30006A46A84B3D212046FFF7C2FE684607F0DF
:101F4000BDF96A46A44B3E212046FFF7B9FE68461C
:101F50000CF04EFD6A46A14B75212046FFF7B0FEFE
:101F600068460CF083FF6A469D4B0B212046FFF725
:101F7000A7FE684607F0B0F96A469A4B3A21204618
:101F8000FFF79EFE684607F0B5F96A46964B3F217B
:101F90002046FFF795FE68460CF0A6FB6A46934B79
:101FA00049212046FFF78CFE68460DF0ABF96A46E2
:101FB0008F4B56212046FFF783FE68460CF0CCFB82
:101FC0006A468C4B57212046FFF77AFE68460DF093
:101FD0008FF96A46884B54212046FFF771FE684608
:101FE0000DF038FB6A46854B0E212046FFF768FE50
:101FF00068460DF075FD6A46814B37212046FFF794
:102000005FFE684605F080F96A46674B112120465D
:10201000FFF756FE684610F065FA6A46794B2821AC
:102020002046FFF74DFE68460DF064FD6A46764B8C
:1020300039212046FFF744FE684604F0BFF96A469E
:10204000724B12212046FFF73BFE68460EF0DCFA89
:102050006A466F4B3B212046FFF732FE684607F089
:1020600011F96A466B4B48212046FFF729FE684666
:102070000EF08EFC6A46684B53212046FFF720FE87
:1020800068460EF073FE6A46644B22212046FFF735
:1020900017FE68460EF078FE6A46614B3C212046EA
:1020A000FFF70EFE68460FF0ADFA6A465D4B36212B
:1020B0002046FFF705FE68460FF0DAFD6A465A4BE8
:1020C00072212046FFF7FCFD684610F019FA6A46B7
:1020D0004C4B52212046FFF7F3FD684600F0F2FB1F
:1020E0006A46524B13212046FFF7EAFD684600F08E
:1020F000F7FB6A464E4B15212046FFF7E1FD684687
:1021000011F060FA6A464B4B16212046FFF7D8FDC6
:10211000684611F059FB6A46474B61212046FFF79C
:10212000CFFD684611F09CFE6A46444B7421204660
:10213000FFF7C6FD68460CF0F3FA6A46404B4C21A7
:102140002046FFF7BDFD684611F0F6FE6A463D4B9E
:102150004D212046FFF7B4FD68460CF0A9FA6A4607
:10216000394B42212046FFF7ABFD684605F074FB72
:102170006A46364B19212046FFF7A2FD684611F04A
:1021800013FF6A46324B31212046FFF799FD68461E
:1021900060E000BFBC36040021060100A90B01006D
:1021A000490C0100E10C0100A51101002506010008
:1021B000790D0100110E010029060100E50E010054
:1021C0002D060100DC360400310601003506010051
:1021D000C10F0100390601003D0601004106010062
:1021E0009510010045060100490601004D06010059
:1021F0005106010055060100590601005D06010067
:102200006106010069070100650601001D1101005A
:10221000690601006D060100AD08010071060100AC
:1022200075060100790601007D06010081060100A6
:1022300085060100C1060100F107010089060100C1
:102240008D06010075120100910601007114010054
:102250004109010012F0ACF96A46234B6621204681
:10226000FFF72EFD68460CF04DFA6A461F4B4B21D6
:102270002046FFF725FD68460CF060FA6A461C4BC5
:102280005C212046FFF71CFD684612F00FFE6A46EF
:10229000184B2D212046FFF713FD684613F054FA22
:1022A0006A46154B29212046FFF70AFD684606F0CD
:1022B00063FF6A46114B1B212046FFF701FD68466C
:1022C00013F0AAFE6A460E4B1C212046FFF7F8FCCD
:1022D000684614F05BFB0B4B6A4658212046FFF71B
:1022E000EFFC204609B030BDC5090100950601008C
:1022F00099060100490A01000D130100AD13010008
:102300009D060100010B010038B5084C23780546F5
:1023100033B94FF4165106481AF096FE0123237084
:1023200029460348BDE838401CF047BA4C2B002032
:10233000A82C00201C21836B18470421836B1847AD
:10234000F7B5002205460C69FFF740FA50B9254B56
:10235000009328466C69244A2449CD23A0470120D4
:1023600003B0F0BD0378092B1DD1D0ED037A0569C8
:10237000B1EE087AC7EE277A17EE900A27F0EAF84E
:1023800027F044FF06460F46284627F0D1F832468C
:102390003B4626F081FF27F0E5FB00F307002070A5
:1023A00065700020DCE7032BFBD1D0ED037A0569D3
:1023B000B1EE087AC7EE277A17EE900A27F0CAF82E
:1023C00027F024FF06460F46284627F0B1F832468C
:1023D0003B4626F061FF27F0C5FB80F30800A070A4
:1023E000E570DEE7AE39040037390400A02B0400A5
:1023F0000368052B10B5044603DD406808B122F0E0
:1024000065FB204610BD10B501680529CCBF4368A7
:10241000031D002201208A4204DA53F822400132CF
:102420006043F8E710BD0000F0B50A680F69436D1E
:102430000C468DB05168064698476268736D5168C6
:102440000546304698470446287A03284ED0092886
:102450002CD0012871D1294668460CF027FC214672
:1024600006A82D680CF022FC04B124686846FFF72A
:10247000CAFFDFED366A2B460022B1EE087A9042A1
:1024800052DDF3EC017AF4EEC77AF1EE10FA0ADCD1
:10249000F5EE407AF1EE10FA48BFF0EE667AE4EC21
:1024A000017A0132EBE7F1EE087AF8E7294668464F
:1024B00097F9016097F900700CF0F8FB214606A827
:1024C0002D680CF0F3FB04B124686846FFF79BFF0E
:1024D0000023984228DDEA56974205DBB242B8BF96
:1024E0003246E2540133F4E73A46FAE729466846B1
:1024F000FE78BF780CF0DAFB214606A82D680CF0B8
:10250000D5FB04B124686846FFF77DFF002398429D
:102510000ADDEA5C974205D3B24238BF3246E25444
:102520000133F4E73A46FAE706A8FFF761FF684689
:10253000FFF75EFF00200DB0F0BD7469FDF7CCFF22
:10254000034902463046A0470120F4E7000000009E
:10255000BF39040022EAE273002A00FA03F0D4BF74
:102560005242002288422DE9304832D101F1004325
:102570005C425C4180FB0101002871F100031B4BB0
:10258000A8BF4FF080436CBB10EB030B41EBE37C27
:10259000BBF1000F7CF1000306DA6FF00044002568
:1025A0001BEB040B4CEB050C4FEADB7343EA4C03CB
:1025B0001F2A10DC012191400139481001EA03046F
:1025C00000EBD37013418442D4BF1846581CBDE8B9
:1025D00030880024CEE7064B064A074840F26711D0
:1025E00029F0BEFB6FF00043E2E700BF010000C02E
:1025F000A0380400EB390400AF3804002DE9F041A5
:102600000A680D69436D0C468CB0516807469847BF
:1026100062687B6D51680646384698470446307AB2
:1026200003284AD0092822D0012876D131466846AD
:102630000CF03CFB214606A835680CF037FB04B1D2
:1026400024686846FFF7DFFE9FED387A2B460022AC
:10265000904258DDF3EC017AF5EE407AF1EE10FA93
:1026600048BFF0EE477AE4EC017A0132F0E73146F8
:1026700068460CF01BFB214606A80CF017FB3668D9
:1026800004B124686846FFF7BEFE00278046B845BF
:1026900039DDEB68F057D5E90512C01AFFF75AFF8C
:1026A0002B6918446B689842B8BF1846AB689842CB
:1026B000A8BF1846E0550137E9E7314668460CF0F7
:1026C000F5FA214606A80CF0F1FA366804B1246840
:1026D0006846FFF798FE00278046B84513DDEB6893
:1026E000F05DD5E90512C01AFFF734FF2B691844D5
:1026F0006B689842B8BF1846AB689842A8BF1846A6
:10270000E0550137E9E706A8FFF772FE6846FFF7D4
:102710006FFE00200CB0BDE8F0817C69FDF7DCFEA7
:10272000034902463846A0470120F3E700000000B5
:10273000BF39040070B5044611B90160204670BD70
:102740008D682B680360052B4FEA830608DD094876
:102750008342D4BF30464FF0FF3022F09FF96060D3
:102760002368052BCCBF6068201D3246291D2AF046
:1027700099FEE3E7FEFFFF1F2DE9F04300228FB033
:1027800007460D460C69FFF721F8064658B9484B35
:1027900000937C698E233846464A4749A04701206A
:1027A0000FB0BDE8F083294600223846FFF71FF836
:1027B000054620B9414B00937C699023EBE73378C1
:1027C000092B40D196ED037AD0ED037AC7EE277A34
:1027D00017EE900A26F0BEFE8046894602A83146D2
:1027E000FFF7A8FF294608A8FFF7A4FF04F1180384
:1027F00004F1140240464946FEF7D4FED5ED037AB3
:102800009FED2F7A2F69C7EE277A17EE900A27F0EF
:10281000CFFF07EE900AFDEEE77A6FF07F0317EE29
:10282000900A38449842ACBF606063607F23A36025
:10283000336908A8C4E90337FFF7DAFD02A8FFF7F8
:10284000D7FD0020ACE7032BFBD196ED037AD0ED4A
:10285000037AC7EE277A17EE900A26F07BFE8046B1
:10286000894602A83146FFF765FF294608A8FFF709
:1028700061FF04F1180304F1140240464946FEF7D3
:1028800091FED5ED037A9FED0E7A2F69C7EE277A78
:1028900017EE900A27F08CFF07EE900AFDEEE77A1C
:1028A000FF2317EE900A384420EAE0706060BEE72C
:1028B000AE39040037390400A02B04002539040088
:1028C0000000000070B5054D064604460FCD0FC44C
:1028D00095E80F0084E80F00304670BD60380400B2
:1028E00070B5054D064604460FCD0FC495E80F00A0
:1028F00084E80F00304670BD803804000368052B63
:10290000C7BF436853F8210000EB8100406870475F
:102910002DE9F04F14460A68436D0E4691B0516898
:102920000546984732686B6D916807462846984778
:1029300072686B6D5168804628469847064698F83D
:102940000800022840F06D82307A022840F0698247
:10295000387A032800F0D380092800F090810128FC
:1029600040F05682394604A80CF0A0F93B68D8F82C
:102970000070019331460AA80CF098F935683B685D
:10298000049E002C5DD01C1EB8BFA419214604A8CB
:10299000FFF7B4FF4FF0000907464FF001084C4520
:1029A00008DD494604A8FFF7A9FF09F1010900FB6A
:1029B00008F8F4E704F1010901244E452EDC00215A
:1029C00007FB04F24FEA840A2B4602920E468C461D
:1029D000E04540F31382019A02EB810E06FB0442AC
:1029E000521A92000020043A844223DDFEEC017A60
:1029F000012502EB0E094FF0000BAF4216DD99EDF9
:102A0000007AB4EEE77AF1EE10FAD4BFB0EE677A4E
:102A1000AB46D1440135F0EE477AEEE7494604A8CB
:102A2000FFF76CFF09F101094443C6E743F820B002
:102A30000130D9E7029A0CF1010C53443E44114491
:102A4000C6E71C1EB8BFA419214604A8FFF756FF0D
:102A50004FF0000907464FF001084C4508DD494694
:102A600004A8FFF74BFF09F1010900FB08F8F4E7A0
:102A700004F1010901244E452EDC002107FB04F27C
:102A80004FEA840A2B4602920E468C46E04540F3FC
:102A9000B581019A02EB810E06FB0442521A9200A4
:102AA0000020043A844223DDFEEC017A012502EB8A
:102AB0000E094FF0000BAF4216DD99ED007AB4EE2F
:102AC000E77AF1EE10FA54BFB0EE677AAB46D14424
:102AD0000135F0EE477AEEE7494604A8FFF70EFF0E
:102AE00009F101094443C6E743F820B00130D9E7B2
:102AF000029A0CF1010C53443E441144C6E7394696
:102B000004A80CF0D3F8D8F800803D6831460AA834
:102B10000CF0CCF83768DDF81090D8F80030002CB5
:102B200056D01C1EB8BF4C44214604A8FFF7E6FE51
:102B30004FF0000A06464FF00108544508DD5146A3
:102B400004A8FFF7DBFE0AF1010A00FB08F8F4E72E
:102B500004F1010A0124D14526DCA30006FB04F29E
:102B60000021029303923B468C462F46E04540F3FA
:102B7000458101FB0442AA180192002294421FDD04
:102B8000019817F802E000EB020A4FF0000B012059
:102B9000864211DD9AF80090F14594BFF1468346D4
:102BA000A2440130CE46F3E7514604A8FFF7A6FE43
:102BB0000AF1010A4443CEE743F822B00132DDE7CF
:102BC000029A1344039A0CF1010C17443144CDE7E7
:102BD0001C1EB8BF4C44214604A8FFF78FFE4FF0DF
:102BE000000A06464FF00108544508DD514604A886
:102BF000FFF784FE0AF1010A00FB08F8F4E704F18C
:102C0000010A0124D14526DCA30006FB04F20021C1
:102C1000029303923B468C462F46E04540F3EE80FC
:102C200001FB0442AA180192002294421FDD019880
:102C300017F802E000EB020A4FF0000B0120864279
:102C400011DD9AF80090F1452CBFF1468346A2446D
:102C50000130CE46F3E7514604A8FFF74FFE0AF1D4
:102C6000010A4443CEE743F822B00132DDE7029A7D
:102C70001344039A0CF1010C17443144CDE7394653
:102C800004A80CF013F8D8F800803D6831460AA873
:102C90000CF00CF83768DDF81090D8F80030002CF4
:102CA00056D01C1EB8BF4C44214604A8FFF726FE90
:102CB0004FF0000A06464FF00108544508DD514622
:102CC00004A8FFF71BFE0AF1010A00FB08F8F4E76D
:102CD00004F1010A0124D14526DCA30006FB04F21D
:102CE0000021029303923B468C462F46E04540F379
:102CF000858001FB0442AA180192002294421FDD44
:102D0000019817F902E000EB020A4FF0000B0120D6
:102D1000864211DD9AF90090F145D4BFF146834611
:102D2000A2440130CE46F3E7514604A8FFF7E6FD82
:102D30000AF1010A4443CEE743F822B00132DDE74D
:102D4000029A1344039A0CF1010C17443144CDE765
:102D50001C1EB8BF4C44214604A8FFF7CFFD4FF01E
:102D6000000A06464FF00108544508DD514604A804
:102D7000FFF7C4FD0AF1010A00FB08F8F4E704F1CB
:102D8000010A0124D14525DCA30006FB04F2002141
:102D9000029303923B468C462F46E0452EDD01FB15
:102DA0000442AA180192002294421FDD019817F9EB
:102DB00002E000EB020A4FF0000B0120864211DD19
:102DC0009AF90090F145ACBFF1468346A244013028
:102DD000CE46F3E7514604A8FFF790FD0AF1010A39
:102DE0004443CFE743F822B00132DDE7029A1344AF
:102DF000039A0CF1010C17443144CEE70AA8FFF7FF
:102E0000F7FA04A8FFF7F4FA002011B0BDE8F08F3C
:102E10006C69FDF761FB064902462846A047012080
:102E2000F3E76C69FDF758FB02490246F5E700BF7E
:102E3000453A0400873A04000022FFF769BD0122E9
:102E4000FFF766BD08B5202200212AF029FC014ABF
:102E5000C26008BD3F2E010008B5202200212AF0E3
:102E60001FFC014AC26008BD392E01002DE9FF4157
:102E7000002205460C46FEF7A9FC064660B94E4BFB
:102E80006C69009321234D4A4D492846A0470124EF
:102E9000204604B0BDE8F081002221462846FEF716
:102EA000A6FC20B9474B00936C692323EBE723680A
:102EB0001F68012F0BD00124434B0193CDE902740D
:102EC000424B6E69009324233C4A414924E06368E5
:102ED0001C68012C0CD03C4B0193CDE902473D4BC3
:102EE0006C6900932523354A39492846A047CEE727
:102EF0003778012F13D038466E69FDF7EDFA074693
:102F00002046FDF7E9FA344B0193CDE90270334BCB
:102F10002A4A3349009326232846B047B8E7047865
:102F2000012C14D02046D5F81480FDF7D5FA0446BC
:102F30003078FDF7D1FA294B01932A4B0093CDE964
:102F4000024027231D4A26492846C0479FE7836938
:102F5000B269934208D0CDE90232234B0193234B4F
:102F600000936E692823AFE78268B3681068196818
:102F7000884213D1043204330021884219DD52F80B
:102F8000044B53F8046BB44211D0194B0193194B05
:102F90000093CDE902462B236C69A4E7164B0193FD
:102FA000164B0093CDE902016E6929238CE70131AC
:102FB000E3E700246CE700BFAE390400D83A040010
:102FC000A02B040025390400D65D0400483B040012
:102FD000A5350400583B0400833B040078750400C9
:102FE000693B0400923B04009F3B0400AC3B04009F
:102FF000CD3B0400E23B0400E96E0400BA3B040050
:10300000F0B50A68436D8DB00E4651680446984786
:103010007268636D51680546204698472946044604
:1030200068460BF043FE214606A82D680BF03EFED5
:1030300004B1246800990529CCBF019A01AA002394
:10304000012799420ADC0026BE420CDA55F8040B2F
:1030500027F026F9013644F8040BF5E752F823006F
:1030600001334743EDE706A8FFF7C2F96846FFF7CB
:10307000BFF900200DB0F0BD70B5054D0646044601
:103080000FCD0FC495E80F0084E80F00304670BDE7
:10309000B83A040070473421836B184738B5036889
:1030A000052B05460C4603DD406808B121F00EFDF6
:1030B000052C2C6008DD054B9C42D4BFA0004FF0CE
:1030C000FF3021F0EBFC686038BD00BFFEFFFF1F42
:1030D0002DE9F04100250560984613688B420646AD
:1030E0000F46144601DD28F033FEFFF7D7FF2068B6
:1030F0002A463F1ABA4231680ADA0529D5BF06EBDB
:1031000082037368C3F8048043F822800132F1E738
:1031100005292268CCBF7068301D052A00EB8700A6
:10312000CCBF6168211D92002AF0BCF93046BDE891
:10313000F08170B50D461646FFF765F9044628463E
:10314000FFF761F905463046FFF75DF9AC4201D063
:1031500028F0FEFD8442FBD170BD000088422DE9BD
:1031600030482CD100F100435C425C4180FB0101FE
:10317000002871F100031F4BA8BF4FF0804304BB30
:1031800010EB030B41EBE37CBBF1000F7CF1000380
:1031900006DA6FF0004400251BEB040B4CEB050C2A
:1031A0004FEADB7040EA4C01002AC2F100040BDD5B
:1031B000114B124A4FF4B371114828F0D1FD00248D
:1031C000D4E76FF00041EFE71F3204DA0D4B0B4AF2
:1031D00040F26711F0E70123A340013B03EA01003D
:1031E0005B1003EBD17321419842D4BF0846481CC1
:1031F000BDE83088010000C0343C0400423C0400BB
:10320000AF380400A038040093681944536870B5BF
:1032100096691844144601FA06F5B040D2E907123F
:10322000FFF79CFFD4E9091206462846FFF796FFF0
:10323000D4E904123044FFF791FFE3681844E36ACD
:103240009842B8BF1846236B9842A8BF184640B2B0
:1032500070BD30B5D0E904456A4304FB012184699F
:10326000039AC06904FB031300FB023030BD2DE953
:10327000F04393B004680B680DF1480800259C42A8
:1032800048F8485DB8BF1C460423137081460F46BA
:10329000404621461646FFF701FF2B460122A34276
:1032A0000ADA00990529D5BF08EB830101994A6024
:1032B00041F823200133F2E701234A46214606A8BC
:1032C000FFF706FF01233A4621460CA8FFF700FF4F
:1032D000069A0C9B9A4219D1052AC7BF07980D99E7
:1032E00007A80DA992002AF0ABF878B90123337032
:1032F00000240CA8FFF77CF806A8FFF779F84046F1
:10330000FFF776F8204613B0BDE8F083013C254670
:10331000002D10DB294606A8FFF7F0FA29460746DC
:103320000CA8FFF7EBFA874201D1013DF0E7012F2E
:1033300025D10223337033789A1E012AD6D8032B65
:103340004FF00103C6E91433C6E9163307BF0CAFCB
:1033500006AD06AF0CAD3366002C16DB21463846B1
:10336000FFF7CCFA214681462846FFF7C7FA814588
:103370000DD1336E09FB03F33366013CECE7012802
:1033800001D10323D6E7042333700124B1E721469A
:103390003846FFF7B3FA214681462846FFF7AEFAD2
:1033A000B9F1010F07D1F36D14F1FF3400FB03F005
:1033B000F065ECD2E9E721463846FFF79FFA21464F
:1033C00081462846FFF79AFA814507D1B36D14F17B
:1033D000FF3409FB03F3B365EDD2D6E72146284657
:1033E000FFF78CFA214681463846FFF787FAB9F194
:1033F000010F07D1736D14F1FF3400FB03F070650A
:10340000ECD2C2E721463846FFF778FA21468146DA
:103410002846FFF773FA8145B5D1336D14F1FF34B7
:1034200009FB03F33365EDD2AFE700002DE9F04F60
:103430002DED028B85B0DDE910548046894610469B
:1034400019461E461746FEF7DDFB2B7880F001007B
:10345000032B207001D0092B68D13B6997ED038ABB
:10346000D6ED038A5B42A36233695B42B4EEE88A1D
:10347000E3622B692363F1EE10FA4FF0140354BF9B
:1034800018EE100A18EE900A636226F063F80246FE
:103490000B4625F001FF06460F4618EE900A26F06F
:1034A00059F832463B4626F0D7F9CDE90001E868E5
:1034B00026F050F80022204B26F0A4F802460B46D6
:1034C0003046394626F0C8F9CDE9020118EE100A57
:1034D00026F040F804F1040B32463B4604F1140A8E
:1034E00026F0BAF95B465246FEF7ACF804F1080341
:1034F00004F11802DDE90001FEF7A4F8DDE902019C
:1035000004F1200304F11C02FEF79CF804F11003FF
:1035100099F8001010932A4604F10C03404605B0B8
:10352000BDEC028BBDE8F04FFEF704BA002005B0F9
:10353000BDEC028BBDE8F08F00003041F7B50022F2
:103540000C460546FEF742F921460646012228466A
:10355000FEF73CF92146074600222846FEF747F9C8
:1035600023696169CDE9000332463B462846FFF7EF
:103570005DFF03B0F0BD000070B5054D0646044682
:103580000FCD0FC495E80F0084E80F00304670BDE2
:10359000F83B0400F8B5074601F10C0603240125A9
:1035A00021463846FFF7AAF946F804092146756115
:1035B0003846FFF7A3F914F1FF3400FB05F5EFD20D
:1035C000F8BD2DE9F0418CB00C4615461E4602466A
:1035D000012304216846FFF77BFD224601230421D5
:1035E00006A8FFF775FD29466846FFF7D3FF314669
:1035F00006A8FFF7CFFF0024A04621466846FFF744
:103600007DF92146074606A8FFF778F9B8420ED0A3
:10361000012F4FEA84030BBF5B199B19C3F810807D
:10362000C3F810800CBF45F8240046F8247001341C
:10363000042CE2D106A8FEF7DBFE6846FEF7D8FEB2
:103640000CB0BDE8F0812DE9F04FA3B01AAE12AF77
:10365000099283463A4608460CAC19463346FFF7B2
:10366000B0FF01232D9A04212046FFF731FDDDE94B
:103670000F210E9B53439B004B4308934A432E9BC1
:103680000493CDE90A76930007938B0006930025F7
:1036900000212046FFF732F9A84261DD049B039325
:1036A000002601212046FFF729F9B04252DDDDF85E
:1036B0000C90002702212046FFF720F9B84243DD95
:1036C000CDF814904FF0000803212046FFF716F9BB
:1036D000404535DDCDF800803B46324629460A9804
:1036E000FFF7B7FDCDF8008082463B4632462946BB
:1036F0000B98FFF7AEFD099BDBED0D6A03EB8A0A21
:103700002C9BDAED007A03EB800090ED007A059BAC
:1037100077EE877A9BED0E7AF4EE667AF1EE10FA88
:1037200048BFF0EE667AB4EE677AF1EE10FA48BF61
:10373000F0EE477AE3EC017A059308F10108C3E75C
:10374000069B01379944B5E7039B079A134401365A
:103750000393A6E7049B089A13440135049397E763
:103760002046FEF745FE23B0BDE8F08FF0B5127895
:10377000B1B0012ADDE93676389C3BD0032A3ED031
:103780009FED3A7ADFED3A6A022AF7EE007A18BF27
:10379000F0EE477ABFEE007A18BFB0EE667A1B787B
:1037A0008DED237ACDED247A10AD394604A84BB3C4
:1037B0000BF07CFA31460AA83F680BF077FA2146F5
:1037C000284636680BF072FA04B124680096CDE9F9
:1037D00001540AAB3A4604A916A8FFF734FF28465D
:1037E000FEF706FE0AA8FEF703FE04A8FEF700FE99
:1037F00031B0F0BDDFED1D7A9FED1E7ACFE7F1EE1F
:10380000087AF9E70BF052FA31460AA83F680BF044
:103810004DFA2146284636680BF048FA04B1246870
:103820002A460AA904A8FFF784FC3A463346002139
:103830008842D4DDB3EC017AF2EC017ADDED236A43
:1038400077EE877A9DED247AF4EE667AF1EE10FA3F
:1038500048BFF0EE667AB4EE677AF1EE10FA48BF30
:10386000F0EE477AE4EC017A0131E1E7FFFF7F7F78
:10387000FFFF7FFF000000002DE9F04F9BB00AAD75
:103880008146924608462A46194612ABFFF799FE32
:103890000123259A042104A8FFF71AFC00240295AD
:1038A000002104A8FFF72AF8A04242DD00250DF10F
:1038B000100801214046FFF721F8A84237DD002615
:1038C00002214046FFF71AF8B0422EDD00270321FF
:1038D0004046FFF713F8B84225DD009733462A46E5
:1038E00021460298FFF7B5FC0097834633462A46E7
:1038F000214612A8FFF7ADFC069B079A03FB045371
:1039000002FB0363089A02FB03730393249B4A465A
:103910001956289B1AF90B009847269B1A46039BB9
:103920000137D054D3E70136CAE70135BFE7013488
:10393000B6E704A8FEF75CFD1BB0BDE8F08F2DE9EB
:10394000F04FA5B014AE0C92044632460846194614
:103950001CABFFF736FE01232F9A04210EA8FFF7B8
:10396000B7FBDDE91128109B0D96534308FB03F3C9
:103970000A93309B03935B42089308FB02F309937D
:10398000002500210EA8FEF7B9FFA8427ADD089BAA
:103990000793039B069300260DF138090121484641
:1039A000FEF7ACFFB04264DD079B0593069B0493D2
:1039B0000027CDF82C9002210B98FEF79FFFB8420C
:1039C0004EDDDDF81090059B0B98032109EB030BEE
:1039D000FEF794FF58453ADDCDF800B03B4632463D
:1039E00029460D98FFF735FC0C9B13F800A063687F
:1039F000CDF800B09A4432463B4629461CA8FFF752
:103A000028FC2E9AA36912F800B0A2680AFA03F003
:103A10009344D4E907120BFA03FBFFF79FFBD4E9A9
:103A2000091282465846FFF799FBD4E90412504424
:103A3000FFF794FBE3681844E36A9842B8BF18465E
:103A4000236B9842A8BF184609F8010BBBE7049BFB
:103A500043440493059BA3EB080301370593AAE7AE
:103A6000069B099A13440693079B9B1A01360793FA
:103A700092E7039B0A9A13440393089B9B1A013510
:103A800008937EE70EA8FEF7B3FC25B0BDE8F08FE3
:103A90002DE9F04FC5B01D46436A3093836A2B93DE
:103AA0004369319343683293C36A2C938369339398
:103AB00083683493036B2D93C3692E93036A2F930A
:103AC0001646D0E9032324A8CDE935230F460BF091
:103AD000EDF831461EA80BF0E9F82AAA1EA924A881
:103AE000FFF7C5FB82461EA8FEF782FC24A8FEF75E
:103AF0007FFC2B7A092B18AC75D1BAF1000F27D0B7
:103B0000394624A80BF0D2F831461EA83F680BF0C6
:103B1000CDF82946204636680BF0C8F8604B049370
:103B2000604B03932B680096CDE901433A461EABE8
:103B300024A92AA8FFF7A0FE2046FEF759FC1EA8DC
:103B4000FEF756FC24A8FEF753FC45B0BDE8F08F05
:103B5000319B1793329B0D932C9B0E93339B0F93AA
:103B6000349B1093309B11932B6812932D9B1393CE
:103B70002E9B14932F9B1593DDE935B3394624A86A
:103B80001693D7F80080D6F80090DDF8ACA00BF0C3
:103B90008DF831461EA80BF089F8294620460BF017
:103BA00085F822461EA924A8FFF7C3FA169B0B909E
:103BB000CDE909B3159B0893149B0793139B0693B8
:103BC000129B0593119B0493109B03930F9B0293ED
:103BD0000E9B01930D9B00935246179B494640460E
:103BE00014F04AFDA8E7394624A8BAF1000F16D010
:103BF0000BF05CF831461EA83F680BF057F82946D9
:103C0000204636680BF052F82B680096CDE9014348
:103C10003A461EAB24A92AA8FFF791FE8CE70BF0C9
:103C200045F831461EA83F680BF040F8294620466B
:103C300036680BF03BF822461EA924A8FFF779FA54
:103C4000D5F8008081465546A9457FF775AF16F82F
:103C500005A02C9B2B9A30989A447B5D13440AFA5A
:103C600000FADDE9311203FA00F0FFF777FADDE937
:103C7000331283465046FFF771FADDE92E1258449D
:103C8000FFF76CFA2D9B1844359B9842B8BF184635
:103C9000369B9842A8BF184608F805000135D3E7BF
:103CA000093201009530010008B51846049B1A7AC4
:103CB000032A01D0092A03D1DDE90212FFF7E8FE49
:103CC000002008BD2DE9F0430A684F69436D0D4699
:103CD00085B05168044698472A68636D91688046AC
:103CE000204698476A68636D516881462046984728
:103CF0000646007A2B6901280CD12046CDE90196B1
:103D0000CDF800803A462946FFF730FD002005B087
:103D1000BDE8F083032801D0092809D1CDE9019637
:103D2000CDF800803A4629462046FFF7BDFFEEE772
:103D30006569FCF7D1FB337A024902462046A84761
:103D40000120E4E7183C04003821836B184770B564
:103D500015461E46FEF7D2FD314604462846FEF7BC
:103D6000CDFDA042A8BF204670BD00002DE9F04F58
:103D70002DED028B95B01D46B0F90A300393B0F9D2
:103D80000C300493B0F90E300593B0F9103006935F
:103D9000B0F90230DDF88C800893B0F90430099353
:103DA0000C4600231946129290ED0C8AD0ED0D8A34
:103DB00042462046FFF7CBFF032319460A902A46C6
:103DC0002046FFF7C4FF032342460B9000212846FC
:103DD000FFF7BDFF012107902046FEF78FFD02216E
:103DE0000C902046FEF78AFD01210D902846FEF733
:103DF00085FD02210E902846FEF780FD01210F90DF
:103E00004046FEF77BFD022110904046FEF776FD0E
:103E1000DFED546A11904FF0000E0A9B9E4580F230
:103E20009C80099B4FF0000BC3F10009109B9B4540
:103E300080F29080089B5B4202934FF0000A119B36
:103E40009A4580F282800022079B934276DD002310
:103E5000DFED447A019349460E9B0198984241DA7E
:103E600002984FF0000C0F9B9C4535DA00282EDBA2
:103E70000D9B83422BDD002929DB0C9B8B4226DD29
:103E800000260B9B9E4222DAA368E76803FB0E1311
:103E900007FB0303276907FB0363129F07EB8303F9
:103EA0001393019FAB6803FB0273EF6807FB03C327
:103EB0002F6907FB0363209F07EB8303139F93ED99
:103EC000007A97ED006A0136E6EE077AD9E7059B9E
:103ED0000CF1010C1844C6E7019B01330193069BCA
:103EE0001944B9E7229B33B303EB820393ED007AC5
:103EF000D8F80830D8F80C1077EE877A03FB0EB3A9
:103F0000F4EE487A01FB03A3F1EE10FAD8F8101092
:103F100048BFF0EE487A01FB0321F4EE678A249B48
:103F2000F1EE10FA03EB810148BFF0EE687AC1EDC3
:103F3000007A013288E7B0EE667AD9E7DDE902322D
:103F400013440AF1010A029379E7049B0BF1010B78
:103F500099446BE70EF1010E5FE715B0BDEC028BE3
:103F6000BDE8F08F000000002DE9F04F9DB01C4629
:103F7000B0F90A300493B0F90C300593B0F90E3063
:103F80000693B0F910300793B0F902300B93B0F9F3
:103F900004300C9343690D9383690E93C3690F93A7
:103FA000036A1093436A1193836ADDF8A49008931F
:103FB000C36A09938846002319461A9240464A4626
:103FC000FFF7C5FE03231946129022464046FFF72D
:103FD000BEFE03234A46139000212046FFF7B7FE9A
:103FE00001210A904046FEF789FC022114904046C8
:103FF000FEF784FC012115902046FEF77FFC02218C
:1040000016902046FEF77AFC012117904846FEF7ED
:1040100075FC022118904846FEF770FC4FF0000A2C
:104020001990129B9A4580F299800C9B5B420293F7
:1040300000230093009B189A934280F28C800B9B84
:104040005B4203934FF0000B199B9B457BDA0025E5
:104050000A9BAB4270DD0020029A0190169B0199E9
:10406000994245DA03994FF0000C179B9C4539DAC9
:10407000002932DB159B8B422FDD002A2DDB149BA0
:1040800093422ADD0026139B9E4226DA019FA368F5
:1040900003FB0573E76807FB03C32769BE46269F3A
:1040A0000EFB0373D8F80C7013F806E00E9B7344F4
:1040B0001B93D8F8083003FB0A2307FB0313D8F837
:1040C0001070BE461A9F0EFB03730D9F9B5D3B4411
:1040D0001B9F013603FB0700D5E7069B0CF1010C83
:1040E0001944C2E7019B01330193079B1A44B5E7CA
:1040F000289B13B153F825301844DDE91012FEF760
:1041000029FAD9F80830009A2A9903FB0A23D9F82A
:104110000C2002FB03B3D9F8102002FB03130F9A03
:104120001044089A9042B8BF1046099A9042A8BF1E
:104130001046585501358BE7DDE9033213440BF186
:10414000010B039380E7009B059A01330093029BC8
:10415000134402936EE70AF1010A62E71DB0BDE85D
:10416000F08F2DE9F04F9BB01D4643690B93B0F9DA
:104170000A300493B0F90C300593B0F90E30069371
:10418000B0F910300793B0F902300C93B0F9043055
:104190000D93C3690E93836ADDF8A4800893C36A04
:1041A00009930023CDE91712284619464246FFF726
:1041B000CEFDDDF894900F90032319464A46284619
:1041C000FFF7C5FD03234246109000214846FFF744
:1041D000BEFD01210A902846FEF790FB02211190B6
:1041E0002846FEF78BFB012112904846FEF786FB1E
:1041F000022113904846FEF781FB012114904046AE
:10420000FEF77CFB022115904046FEF777FB4FF04E
:10421000000A16900F9B9A4580F29B800D9B5B4293
:10422000029300230093009B159A934280F28E80A4
:104230000C9B5B4203934FF0000B169B9B457DDA72
:1042400000240A9BA34272DD0020029A0190139B76
:104250000199994243DA03994FF0000C149B9C4555
:1042600037DA002930DB129B8B422DDD002A2BDB55
:10427000119B934228DD0026109B9E4224DAAB68F6
:10428000EF6803FB0A2307FB03132F69BE46249F35
:104290000EFB0373019F13F906E00B9B7344199304
:1042A000D9F8083003FB0473D9F80C7007FB03C37B
:1042B000D9F81070BE46269F0EFB0373199F9B57BB
:1042C000013603FB0700D7E7069B0CF1010C1944EC
:1042D000C4E7019B01330193079B1A44B7E7289B6E
:1042E00013B153F824301844189B53F82420179B1B
:1042F00053F82410FEF72EF9D8F80830009A2A99BE
:1043000003FB0A23D8F80C2002FB03B3D8F81020D3
:1043100002FB03130E9A1044089A9042B8BF10464D
:10432000099A9042A8BF10461855013489E7DDE983
:10433000033213440BF1010B03937EE7009B059AB4
:1043400001330093029B134402936CE70AF1010AC4
:1043500060E71BB0BDE8F08F2DE9F04F1646CBB0FB
:10436000814648690D69569C39901F4613699269C8
:1043700008920128F26A0992D1E901CE3895C3F179
:104380000003D6E900B1326BD6E9098A40F091808A
:10439000012D40F08E803293089B3393099BCDE929
:1043A00036B120A85499CDE934CECDE93A32CDE9E1
:1043B0000A8A0AF07BFC394626A80AF077FC2146D7
:1043C0002CA80AF073FC55993CA80AF06FFC002356
:1043D00019462CAA26A8FFF7BAFC032382461946E1
:1043E00020AA26A8FFF7B3FC03232CAA83460021AA
:1043F00020A8FFF7ACFC2946804626A8CDF838A0B7
:10440000FEF77CFA02210F9026A8FEF777FA2946DC
:10441000CDE9100B20A8CDF84880FEF76FFA0221F5
:10442000139020A8FEF76AFA2946CDE9140B2CA8B0
:10443000CDE91655CDE91858CDF868A0FEF75EFA1B
:1044400002211B902CA8FEF759FA716B00239942A8
:10445000CDE91C08CDE90C3304DBD9F844304846DB
:1044600098470C90549A55993B681268096804B1B2
:10447000246806941AA8CDE9041016A9CDE90221F2
:1044800012AA32A9CDE900320CA80EAB0AAA14F088
:10449000E1FE3CA8FDF7ACFF2CA8FDF7A9FF26A87C
:1044A000FDF7A6FF20A8FDF7A3FF00204BB0BDE855
:1044B000F08F4193089B4393ADF80001099BADF841
:1044C000FE50ADF8F4102CA8394626ADADF8FCE04E
:1044D000ADF8FAC047924693ADF8F2B00AF0E6FBA9
:1044E0005499D7F8009028460AF0E0FB20AE549B80
:1044F0005599D3F800B030460AF0D8FB559B1AAF57
:104500001B680893214638460AF0D0FB089B04B18B
:104510002468CDF8009052464146CDE903633CA89B
:104520002CABCDE90574CDE9015BFFF71AFE3846E7
:10453000FDF75EFF3046FDF75BFF2846FDF758FFAD
:104540002CA8B0E72DE9F04F0A684D69436D8A4603
:10455000B5B0516804469847DAF80020636D916859
:10456000064620469847DAF800201368032B814658
:104570001ED1636DD168204698478046DAF8042042
:10458000636D516820469847337A027A9342074612
:1045900011D0CDE90232874B0193874B00936569B7
:1045A000864A87494FF4D3732046A847012098E0F4
:1045B0004FF00008E2E799F80800984204D06369D8
:1045C000804920469847F1E70328DAF8102000F0E8
:1045D0008B8009287CD0012840F0E3802B7B012BC5
:1045E0006ED0032B71D09FED787ADFED786A022BC5
:1045F000F7EE007A18BFF0EE477ABFEE007A18BFE8
:10460000B0EE667A2B78012B03D0022B0CBF02236D
:1046100000238DF898301368ADF89A305368ADF8E0
:104620009C306B68ADF8A230AB68ADF8A4302B6954
:10463000ADF8A63031466B69ADF8A83020A88DEDF5
:10464000327ACDED337A14AD0AF030FB49461AA820
:10465000D6F800A00AF02AFB0EAE41462846D9F84B
:1046600000900AF023FB39463046D8F800800AF063
:104670001DFBD7F800B008AF0021384600240AF02F
:1046800015FBCDE90574CDE9036BCDE90158CDF8F3
:1046900000901AAB524620A926A8FFF767FB3846C0
:1046A000FDF7A6FE3046FDF7A3FE2846FDF7A0FE67
:1046B0001AA8FDF79DFE20A8FDF79AFE204610E0FF
:1046C000DFED417A9FED427A9CE7F1EE087AF9E757
:1046D000CDE90187CDF80090334629462046FFF703
:1046E0003BFE35B0BDE8F08F2878116953699469B5
:1046F0000128C1F10001C3F1000303D002280CBF5F
:10470000022000208DF898001068ADF89A005068DB
:10471000ADF89C006868ADF8A200A868ADF8A400E8
:104720002869ADF8A6006869ADF8A800CDE92B139B
:10473000D3692E93136A2D945B422F93D36A3093DF
:104740003146136B319320A80AF0B0FA14AD4946F4
:104750001AA8D6F800A00AF0A9FA0EAE41462846DB
:10476000D9F800900AF0A2FA39463046D8F800800D
:104770000AF09CFAD7F800B008AF384600210024B0
:104780000AF094FACDE90644CDE904B7CDE90286F2
:10479000CDE900951AAB524620A926A8FFF7E4FB05
:1047A0007DE76569FBF798FE337A0A4902462046A1
:1047B000A847FBE6923B040078750400BC3C04006B
:1047C000A5350400353D0400FFFF7F7FFFFF7FFF1D
:1047D00000000000183C0400012803D0022806D085
:1047E000002070471944013991FBF3F0704700989D
:1047F000013A504319440130091AF5E72DE9F04F09
:104800000022B9B005460F46D1E90446FCF7DEFFA9
:104810000122804639462846FCF7D8FF00220F9037
:1048200039462846FCF7E3FF4146824622A8FDF7B9
:1048300081FF514628A8FDF77DFF0023194628AACD
:1048400022A8FFF784FAD8F8083016909A68DB6837
:1048500017928346032122A81893FEF74FF80321ED
:1048600019900B9028A8FEF749F80F9B1A90D3F8DF
:1048700008900B9BD9F808201B92D9F80C201C92A9
:10488000CDE91D3BDAF8083003219A68DB681F92F6
:1048900028A82093FEF732F8D9F8043021904FEA87
:1048A00083094946AB6B28469847AB6B6062494623
:1048B000284698473B68A0621B68023B012B12D92F
:1048C000704B00936C69704A704957232846A04783
:1048D000012728A8FDF78CFD22A8FDF789FD3846A1
:1048E00039B0BDE8F08F7B681B680B93012B0DD0AE
:1048F0000127CDE90237664B0193664B00936C6943
:10490000614A654958232846A047E2E7189B0C9363
:10491000179B0D931C9B0E9398F800301493B3686B
:104920001093736896F800B011937369129333690A
:104930000E9A0C99139300935846119BDDF86C90D6
:10494000FFF74AFF129B0D9915904A46009358466F
:10495000109BFFF741FF129B139A119909F1FF3940
:1049600003FB09F9109B09F10109013803FB0090D1
:104970000D9BC01A0E9B013B53435A1C159B013BD8
:1049800001FB03230C9A9B1A23EAE3735A1020EAD3
:10499000E070226003F00103421000F00100626049
:1049A000A360E060149B012B2ED10F9A98F80010A1
:1049B0001269D8F8103062610929DAF810202361F1
:1049C000A2615AD15B42CDE92E32B368319373684C
:1049D00030937369359333693493636833932368F1
:1049E0003293E36A3693236B379316A91EAB1AAA48
:1049F0002EA814F08BFC011E3FDD2B6C04F1340259
:104A000028469847074664E7394600222846FCF7BF
:104A1000DDFE394683460B9A2846FCF7D7FE394619
:104A2000814602222846FCF7F3FE39460B9000220D
:104A30002846FCF7DCFED9F808200B9B5268089248
:104A4000A26A0792626A069204F13002059204F1AA
:104A50002C02049204F12002039204F11C0202923F
:104A600006F10C02CDE9000259464A462846FCF7F9
:104A7000C3FF0746002898D02BE74FF0FF3363634E
:104A8000002726E7DF3D0400BC3C0400A02B040007
:104A9000D65D0400033E0400A535040070B5054D45
:104AA000064604460FCD0FC495E80F0084E80F00BA
:104AB000304670BD9C3C04003821836B18472DE9BB
:104AC000F04FA1B01C46B0F90A300893B0F90C3091
:104AD0000993B0F90E300A93B0F910300B93B0F986
:104AE00002300C93B0F904300D93B0F912300193F9
:104AF00043691093C3691193836ADDF8BCA00E93D8
:104B0000C36A0F930023CDE91B1220461946524673
:104B1000FFF71DF9012112902046FDF7EFFE02215B
:104B200013902046FDF7EAFE032114902046FDF77E
:104B3000E5FE012115902B98FDF7E0FE022116906D
:104B40002B98FDF7DBFE012117905046FDF7D6FEAE
:104B5000022118905046FDF7D1FE019B19909B0051
:104B600003934FF00009129B994580F2B0800D9B92
:104B70005B4207934FF0000B189B9B4580F2A4808B
:104B80000C9B5B42069300230093009B199A93426F
:104B900080F293801B9B02931C9B049300262E9B08
:104BA0000593B046159B98457FDA2A9B4344002520
:104BB0001F93019B9D4268DA2C9AAB19A9191A938D
:104BC00000200A44079B1E928446169A944532DAC6
:104BD000069A4FF0000E17998E4527DA002A20DB3F
:104BE000149991421DDD002B1BDB1399994218DDAE
:104BF000A168E76801FB093107FB012127697943B7
:104C00001F9F7956109F39441D912B992B9FC9687E
:104C10003F6901FB0CE179431E9F79561D9F01FB03
:104C200007000A990EF1010E0A44D4E70B9A0CF121
:104C3000010C1344C9E72E9B1BB1059B53F825308B
:104C40001844049B53F82520029B53F82510FDF7C8
:104C500081FCDAF80830DAF80C20009903FB09B37C
:104C600002FB0313DAF81020309902FB0313119AA8
:104C700010440E9A9042B8BF10460F9A9042A8BFB7
:104C800010461A9A0135985493E7DDE9023213442D
:104C90000293049B134404931346059A1A44019B00
:104CA000059208F101081E447CE7009B089A013335
:104CB0000093069B1344069367E7079B099A1344E6
:104CC0000BF1010B079357E709F101094BE721B0FD
:104CD000BDE8F08F2DE9F04F1F4613694D69D1B043
:104CE00016465B4280460993886992690A92D6E922
:104CF000003E0128D1E901C2DDF868B15C9C3D901D
:104D00003C950B93C968D6E9099A40F09680012D2D
:104D100040F09380099B35930A9B36930B9B3A9303
:104D2000CDE938C27F236FF07F02379123A859461F
:104D3000CDF8ECE0CDE93E23CDE90D9A09F0B6FFC0
:104D4000394629A809F0B2FF21462FA809F0AEFF85
:104D50005B9940A809F0AAFF002319462FAA29A8A9
:104D6000FEF7F5FF032319462FAA814623A8FEF775
:104D7000EEFF2946824629A8CDF84490FDF7BEFDF6
:104D80000221129029A8FDF7B9FD0321139029A84B
:104D9000FDF7B4FD0021149023A8FDF7AFFD2946CF
:104DA000159023A8FDF7AAFD0221169023A8FDF770
:104DB000A5FD2946CDE9170A2FA8CDE91955CDE95A
:104DC0001B5ACDF87490FDF799FD02211E902FA873
:104DD000FDF794FD716B00239942CDE91F0ACDE9DF
:104DE0000F3304DBD8F84430404698470F905B9966
:104DF0003B68DBF80020096804B1246806941DA80C
:104E0000CDE9041019A9CDE9022115AA35A9CDE9EA
:104E100000320FA811AB0DAA15F048FE40A8FDF70F
:104E2000E7FA2FA8FDF7E4FA29A8FDF7E1FA23A88D
:104E3000FDF7DEFA51B0BDE8F08FBDF82C30ADF8CB
:104E40000231099B4593002346930A9B47936FF0D9
:104E50007F030126ADF80E51ADF81001ADF8121127
:104E60004A9339467F232FA829ADADF804E1ADF868
:104E70000AC1ADF80C214B938DF8006109F016FFC3
:104E800023AE59462846D7F8008009F00FFF5B99FA
:104E9000DBF800B0304609F009FF5B9B1DAF1B68D3
:104EA00009932146384609F001FF099B04B12468A3
:104EB000CDF8008052464946CDE9036340A82FABA8
:104EC000CDE90574CDE9015BFFF7F9FD3846FDF743
:104ED0008FFA3046FDF78CFA2846FDF789FA2FA89D
:104EE000A6E700002DE9F04F2DED028B99B09B460F
:104EF000B0F90A300893B0F90C300993B0F90E30CC
:104F00000A93B0F910300B93B0F902300C93B0F95A
:104F10000430279D0D93B0F9123003930C46002303
:104F20001946169290ED0C8AD0ED0D8A2A4620463D
:104F3000FEF70DFF01210E902046FDF7DFFC022158
:104F40000F902046FDF7DAFC032110902046FDF774
:104F5000D5FC012111905846FDF7D0FC022112909A
:104F60005846FDF7CBFC012113902846FDF7C6FCFF
:104F7000022114902846FDF7C1FCDFED5F6A159011
:104F80004FF000090E9B994580F2B0800D9B5B426B
:104F9000069300230193019B149A934280F2A3800D
:104FA0000C9B5B4205934FF0000A159B9A4580F2DB
:104FB0009280269B0493002302939C46119B9C4560
:104FC00080F282800021039B994271DA029B06984D
:104FD000DFED497ACB1807934FF0000E129B9E45E8
:104FE0003ADA059E4FF00008139B98452FDA002E01
:104FF00028DB109BB34225DD002823DB0F9B834277
:1050000020DDA368E26803FB090302FB0363226956
:1050100002FB03C2169B03EB82031793DBF81030ED
:10502000DBF80C201F46079B02FB0E8207FB0232B7
:10503000249B03EB8202179B92ED007A93ED006AAA
:10504000E6EE077A0A9B08F101081E44CCE70B9BA9
:105050000EF1010E1844C1E7269B33B3049B03EB0A
:10506000810393ED007AAB68019A079877EE877A0F
:1050700003FB0923EA68F4EE487A02FB03A3F1EE8E
:1050800010FA2A6948BFF0EE487A02FB0302F4EEF8
:10509000678A289BF1EE10FA03EB820248BFF0EE1C
:1050A000687AC2ED007A01318DE7B0EE667ADAE710
:1050B000DDE9032303EB820304931346029A1A44A7
:1050C0000CF1010C029279E7059B089A13440AF14E
:1050D000010A059369E7019B099A01330193069B35
:1050E0001344069357E709F101094BE719B0BDECEA
:1050F000028BBDE8F08F00BF000000002DE9F04FEB
:10510000D1E90453BFB000220C9304460F46FCF7CC
:105110005DFB0122834639462046FCF757FB0022FF
:105120000B9039462046FCF762FB9BF80030129347
:10513000DBF808301190DA689B680E930B9B0D9298
:105140009B68DA680F929A681092129A092A4BD1DA
:105150000B9A92F83060012E0ED0A54B01930125D9
:10516000A44B0093CDE9026581236669A24AA34955
:105170002046B04701260AE00B9A526B5AB9A04B61
:105180006569009387239C4A9E492046A84730467C
:105190003FB0BDE8F08F106820B99B4B0093656964
:1051A0008823F0E7516821B9984B009365698923FA
:1051B000E9E70268012A07D01869824204D0944BBB
:1051C000009365698D23DEE709688A420CD0914B14
:1051D0000193914B0093CDE902216569864A874985
:1051E0008F232046A847C5E71E69A36BB60031464A
:1051F00020469847A36B68623146204698473B6833
:10520000A8621B68023B012B08D9844B0093656997
:10521000794A7C4949232046A847ABE77B68D3F805
:105220000080B8F1010F0DD07D4B019301267D4B1D
:105230000093CDE9028665696F4A70494A2320468A
:10524000A847A4E74FF0FF336B630C9B0F9A1E78BF
:105250000D99D3E9019A30464B46CDF80080FFF70F
:10526000BBFA53461390CDF800803046109A0E9941
:10527000FFF7B2FA109B01380AFB003A0E9BAAEB2B
:10528000030A139B5E1E0F9B09FB06390D9BA9EBBE
:10529000030929EAE9792AEAEA7A4FEA69032B60E5
:1052A0004FEA6A036B60129B09F001060AF00100E5
:1052B000012BAE60E8600ED1DBF810302B610B9B48
:1052C0001B696B61119B1B69AB619BF80030092B5B
:1052D0003AD000265BE7002239462046FCF776FAF2
:1052E0004246064639462046FCF770FA02228046BE
:1052F00039462046FCF78CFA002281463946204682
:10530000FCF775FAD8F808301B690893AB6A079365
:105310006B6A069305F13003059305F12C030493A2
:1053200005F12003039305F11C0302930C9B10333A
:10533000CDE9000331464B4642462046FCF75CFB74
:1053400006460028B8D022E7594621A8FDF7F2F911
:10535000119927A8FDF7EEF90B992DA8FDF7EAF9A9
:105360000023194627AA21A8FEF7F1FC03232DAA42
:105370000746194627A8FEF7EAFC0E9B1693064639
:105380000D9B1793032121A81597FDF7B7FA109BE2
:105390001A930F9B1890012127A8CDE91B3619916C
:1053A0001D97FDF7ABFA02211E9027A8FDF7A6FA7C
:1053B0006B6839932B683893CDE91F0615A91DAB8F
:1053C00019AA33A815F0A7FB011E2DDD236C05F1EA
:1053D000340220469847064648B32DA8FDF708F842
:1053E00027A8FDF705F821A8FDF702F8CFE600BFD2
:1053F000BF350400F2350400383E0400A535040032
:105400000C360400A02B040020360400BB3E040030
:10541000DB3E04005D3F040055360400DF3D040020
:10542000D65D0400033E04004FF0FF336B632DA8EC
:10543000FCF7DEFF27A8FCF7DBFF21A8FCF7D8FF6D
:1054400047E700BF70B5054D064604460FCD0FC4B3
:1054500095E80F0084E80F00304670BD183E040048
:105460002DE9F04FA1B09B46B0F90A300793B0F98F
:105470000C300893B0F90E300993B0F910300A934C
:10548000B0F902300B93B0F904300C93B0F912303C
:105490000393836A0D93C36A0E9343690F938369E1
:1054A0001093C3691193036ADDF8B4A01293436AA1
:1054B00013930C46002319461C9220465246FEF7D1
:1054C00046FC012114902046FDF718FA02211590A0
:1054D0002046FDF713FA032116902046FDF70EFA39
:1054E000012117905846FDF709FA022118905846F5
:1054F000FDF704FA012119905046FDF7FFF902214A
:105500001A905046FDF7FAF94FF000091B90149BD2
:10551000994580F2A6800C9B5B4205930023009383
:10552000009B1A9A934280F299800B9B5B420493F2
:1055300000230193019B1B9A934280F287800023F2
:10554000DDF8B08002931F46179B9F4276DA1C9BC2
:105550003B4400251F93039B9D4267DA029B2A9AD6
:10556000EB1806930699059B00200A4484461E9278
:10557000189A944534DA049A4FF0000E19998E4522
:1055800029DA002A22DB169991421FDD002B1DDB50
:10559000159999421ADDA168E66801FB093106FBFD
:1055A0000121266971431F9E715C0F9E31441D913C
:1055B000DBF80C10DBF8106001FB0CE171431E9E60
:1055C000715C109E31441D9E01FB060009990EF18D
:1055D000010E0A44D2E70A9A0CF1010C1344C7E702
:1055E0002C9B13B158F825301844DDE91212FCF752
:1055F000B1FFDAF80830009A019903FB0923DAF8C1
:105600000C2002FB0313DAF810202E9902FB03137F
:10561000119A10440D9A9042B8BF10460E9A9042CB
:10562000A8BF1046069A0135985494E7039B029A46
:105630001A44013708EB8308029285E7019B079A19
:1056400001330193049B1344049373E7009B089A6E
:1056500001330093059B1344059361E709F10109A8
:1056600055E721B0BDE8F08F2DE9F04F4A68436D52
:105670000E46C7B0D1E9048951688346984732681D
:10568000DBF8543051680446584698473268DBF8D6
:105690005430916805465846984732681368032B82
:1056A000074679D1DBF85430D1685846984706460A
:1056B00095F808A0BAF1030F00F08580BAF1090F40
:1056C00074D0BAF1010F40F06A8199F81030012BC3
:1056D00064D0032B67D09FEDB87ADFEDB86A022B58
:1056E000F7EE007A18BFF0EE477ABFEE007A18BFE7
:1056F000B0EE667A01238DF8D830D8F80030ADF8D6
:10570000DA30D8F80430ADF8DC30D9F80430ADF830
:10571000E230D9F80830ADF8E430D9F81430ADF8FB
:10572000E630D9F81830ADF8E8302946D9F80C3011
:10573000ADF8EA301EA88DED427ACDED437A09F03E
:10574000B5FA3946D5F8008024A82AAD09F0AEFA9A
:10575000314628463F6809F0A9FAD6F8009030AEE5
:105760002146304609F0A2FA04B124680097CDE939
:105770000364CDE9015924AB42461EA936A8FFF7C0
:10578000B1FB3046FCF734FE2846FCF731FE24A876
:10579000FCF72EFE1EA8DAE0002689E7DFED867A08
:1057A0009FED877AA6E7F1EE087AF9E7CDE9016483
:1057B00000972B46424649465846FFF78BFA002091
:1057C00047B0BDE8F08F0122D8F81010D8F8143097
:1057D000D8F818008DF8D820D8F80020ADF8DA20D5
:1057E000D8F80420ADF8DC20D9F80420ADF8E22088
:1057F000D9F80820ADF8E420D9F80C20B9F914C084
:10580000B9F918B0ADF8EA205B42D8F82C204092E4
:105810004942D8F83020ADF8E6C0CDE93B13D8F8BE
:105820001C303E93D8F82030ADF8E8B05B42BCF1B4
:10583000010F41923D903F9340F08C80BBF1010FEE
:1058400040F08880394624A809F030FA594624A847
:10585000FDF754F80221814624A8FDF74FF82946A8
:1058600080462AA809F022FA59462AA8FDF746F8E8
:10587000022117902AA8FDF741F8514616902AA850
:10588000FDF73CF82146824630A809F00FFA594648
:1058900030A8FDF733F80221834630A8FDF72EF833
:1058A000169A179B3F68179791B29AB21FFA8AF31C
:1058B000BDF9DA7016933B9B18971B93BDF9DC700A
:1058C0003C9B19971C93BDF9E2703D9B1A972D687C
:1058D000BDF9EAA0BDF9E470BDF9E6C0BDF9E8E0A4
:1058E00036681D931FFA88F81FFA89F904B12468F5
:1058F0003E9B14933F9B1393419B1293409B1193A8
:105900001D9B0D931C9B0C931B9B0797CDE90A6372
:105910001A9B0693199B0593189B80B2CDE903A3AC
:105920001FFA8BFB179BCDF840B0CDE908CECDE92F
:105930000E40CDE9018900932846169B14F0B8FD6E
:1059400030A8FCF755FD2AA8FCF752FD24A8FCF767
:105950004FFD34E729461EA809F0A8F93946D5F8C5
:10596000008024A82AAD09F0A1F9314628463F68F5
:1059700009F09CF9D6F8009030AE2146304609F087
:1059800095F904B124680097CDE90364CDE9015984
:1059900024AB42461EA936A8FFF762FDF1E6504649
:1059A000DBF81440FAF798FD2B7A06490246584670
:1059B000A047012004E700BFFFFF7F7FFFFF7FFFBD
:1059C00000000000183C04002421836B184730B508
:1059D0000568052DCCBF4368031D00220120AA42A3
:1059E00007DA8A4214BF53F822400124604301328F
:1059F000F5E730BD2DE9F04FC1B01F464A9E4B9CE4
:105A00003368814688461546002B00F0A980214660
:105A10002EA809F04BF900212EA8FCF76FFF0121F9
:105A200083462EA8FCF76AFF3946824634A809F05F
:105A30003DF9349934A80139FCF760FF29460990F3
:105A40003AA809F033F9D8F81830099ACDF860B0BF
:105A50005B422893D8F820302A93D8F81C30CDF830
:105A60009CA05B422993D8F808302B93D8F80C30CF
:105A70002C93D8F800301493D8F804305B42159377
:105A80000123CDE91933CDE91D33CDE91FA3CDE9BC
:105A90002133CDE925330023CDE91B22CDE923AB0A
:105AA000CDE91633D8F81410994204DBD9F8443004
:105AB0004846984716902A6839683068002C42D0CA
:105AC0002368069324ABCDE9040320ABCDE9021390
:105AD0001CABCDE9002328A918AB14AA16A815F011
